{
  "address": "0xe7f1725E7734CE288F8367e1Bb143E90bb3F0512",
  "abi": [
    {
      "inputs": [
        {
          "internalType": "address",
          "name": "add1",
          "type": "address"
        }
      ],
      "name": "callGetter",
      "outputs": [
        {
          "internalType": "bytes",
          "name": "",
          "type": "bytes"
        }
      ],
      "stateMutability": "nonpayable",
      "type": "function"
    },
    {
      "inputs": [],
      "name": "get",
      "outputs": [
        {
          "internalType": "uint256",
          "name": "",
          "type": "uint256"
        }
      ],
      "stateMutability": "view",
      "type": "function"
    },
    {
      "inputs": [],
      "name": "set",
      "outputs": [],
      "stateMutability": "nonpayable",
      "type": "function"
    },
    {
      "inputs": [],
      "name": "value",
      "outputs": [
        {
          "internalType": "uint256",
          "name": "",
          "type": "uint256"
        }
      ],
      "stateMutability": "view",
      "type": "function"
    }
  ],
  "transactionHash": "0x85947df732eb93d27244c51b78fe86b8d7d4b1ad44b75cc11d5eddde000bb91e",
  "args": [],
  "numDeployments": 1,
  "solcInputHash": "2b15aef49c340cb0506e4f5d4d145c24",
  "bytecode": "0x6080604052600860005534801561001557600080fd5b506104b6806100256000396000f3fe608060405234801561001057600080fd5b506004361061004c5760003560e01c80633fa4f245146100515780634cdacb331461006f5780636d4ce63c1461009f578063b8e010de146100bd575b600080fd5b6100596100c7565b6040516100669190610253565b60405180910390f35b610089600480360381019061008491906102d1565b6100cd565b604051610096919061038e565b60405180910390f35b6100a7610227565b6040516100b49190610253565b60405180910390f35b6100c5610230565b005b60005481565b60606000808373ffffffffffffffffffffffffffffffffffffffff166040518060400160405280600881526020017f736574746572282900000000000000000000000000000000000000000000000081525080519060200120604051602401604051602081830303815290604052907bffffffffffffffffffffffffffffffffffffffffffffffffffffffff19166020820180517bffffffffffffffffffffffffffffffffffffffffffffffffffffffff838183161783525050505060405161019691906103ec565b6000604051808303816000865af19150503d80600081146101d3576040519150601f19603f3d011682016040523d82523d6000602084013e6101d8565b606091505b50915091508161021d576040517f08c379a000000000000000000000000000000000000000000000000000000000815260040161021490610460565b60405180910390fd5b8092505050919050565b60008054905090565b6009600081905550565b6000819050919050565b61024d8161023a565b82525050565b60006020820190506102686000830184610244565b92915050565b600080fd5b600073ffffffffffffffffffffffffffffffffffffffff82169050919050565b600061029e82610273565b9050919050565b6102ae81610293565b81146102b957600080fd5b50565b6000813590506102cb816102a5565b92915050565b6000602082840312156102e7576102e661026e565b5b60006102f5848285016102bc565b91505092915050565b600081519050919050565b600082825260208201905092915050565b60005b8381101561033857808201518184015260208101905061031d565b60008484015250505050565b6000601f19601f8301169050919050565b6000610360826102fe565b61036a8185610309565b935061037a81856020860161031a565b61038381610344565b840191505092915050565b600060208201905081810360008301526103a88184610355565b905092915050565b600081905092915050565b60006103c6826102fe565b6103d081856103b0565b93506103e081856020860161031a565b80840191505092915050565b60006103f882846103bb565b915081905092915050565b600082825260208201905092915050565b7f796f216572726f722066756e632063616c6c0000000000000000000000000000600082015250565b600061044a601283610403565b915061045582610414565b602082019050919050565b600060208201905081810360008301526104798161043d565b905091905056fea26469706673582212204b9524378f8a0452c776c775a86977a0f5c4cf53531179d2a67d3fdd2f85d79c64736f6c63430008140033",
  "devdoc": {
    "kind": "dev",
    "methods": {},
    "version": 1
  },
  "userdoc": {
    "kind": "user",
    "methods": {},
    "version": 1
  },
  "storageLayout": {
    "storage": [
      {
        "astId": 4,
        "contract": "contracts/FuncSelec.sol:FuncSelc",
        "label": "value",
        "offset": 0,
        "slot": "0",
        "type": "t_uint256"
      }
    ],
    "types": {
      "t_uint256": {
        "encoding": "inplace",
        "label": "uint256",
        "numberOfBytes": "32"
      }
    }
  }
}