{
  "address": "0x9fE46736679d2D9a65F0992F2272dE9f3c7fa6e0",
  "abi": [
    {
      "inputs": [],
      "stateMutability": "nonpayable",
      "type": "constructor"
    },
    {
      "inputs": [
        {
          "internalType": "address",
          "name": "owner",
          "type": "address"
        }
      ],
      "name": "OwnableInvalidOwner",
      "type": "error"
    },
    {
      "inputs": [
        {
          "internalType": "address",
          "name": "account",
          "type": "address"
        }
      ],
      "name": "OwnableUnauthorizedAccount",
      "type": "error"
    },
    {
      "anonymous": false,
      "inputs": [
        {
          "indexed": false,
          "internalType": "string",
          "name": "func",
          "type": "string"
        }
      ],
      "name": "Log",
      "type": "event"
    },
    {
      "anonymous": false,
      "inputs": [
        {
          "indexed": false,
          "internalType": "address",
          "name": "contractAddress",
          "type": "address"
        },
        {
          "indexed": false,
          "internalType": "address",
          "name": "owner",
          "type": "address"
        }
      ],
      "name": "NewAccount",
      "type": "event"
    },
    {
      "anonymous": false,
      "inputs": [
        {
          "indexed": false,
          "internalType": "address",
          "name": "ownerAddress",
          "type": "address"
        }
      ],
      "name": "Owner",
      "type": "event"
    },
    {
      "anonymous": false,
      "inputs": [
        {
          "indexed": true,
          "internalType": "address",
          "name": "previousOwner",
          "type": "address"
        },
        {
          "indexed": true,
          "internalType": "address",
          "name": "newOwner",
          "type": "address"
        }
      ],
      "name": "OwnershipTransferred",
      "type": "event"
    },
    {
      "stateMutability": "payable",
      "type": "fallback"
    },
    {
      "inputs": [
        {
          "internalType": "address",
          "name": "user",
          "type": "address"
        },
        {
          "internalType": "address",
          "name": "_contractMapper",
          "type": "address"
        }
      ],
      "name": "createAndAddSmartAccount",
      "outputs": [
        {
          "internalType": "address",
          "name": "",
          "type": "address"
        }
      ],
      "stateMutability": "nonpayable",
      "type": "function"
    },
    {
      "inputs": [],
      "name": "owner",
      "outputs": [
        {
          "internalType": "address",
          "name": "",
          "type": "address"
        }
      ],
      "stateMutability": "view",
      "type": "function"
    },
    {
      "inputs": [],
      "name": "renounceOwnership",
      "outputs": [],
      "stateMutability": "nonpayable",
      "type": "function"
    },
    {
      "inputs": [
        {
          "internalType": "address",
          "name": "newOwner",
          "type": "address"
        }
      ],
      "name": "transferOwnership",
      "outputs": [],
      "stateMutability": "nonpayable",
      "type": "function"
    },
    {
      "stateMutability": "payable",
      "type": "receive"
    }
  ],
  "transactionHash": "0xd2df43181a160d44ca729e95ff9abb4f4df5e6f14eac75246992586748a17d8f",
  "args": [],
  "numDeployments": 1,
  "solcInputHash": "a288dce7d58de5e10d593dff0d377716",
  "bytecode": "0x608060405234801561001057600080fd5b5033600073ffffffffffffffffffffffffffffffffffffffff168173ffffffffffffffffffffffffffffffffffffffff16036100845760006040517f1e4fbdf700000000000000000000000000000000000000000000000000000000815260040161007b91906101d5565b60405180910390fd5b610093816100d060201b60201c565b507fa5e220c2c27d986cc8efeafa8f34ba6ea6bf96a34e146b29b6bdd8587771b130336040516100c391906101d5565b60405180910390a16101f0565b60008060009054906101000a900473ffffffffffffffffffffffffffffffffffffffff169050816000806101000a81548173ffffffffffffffffffffffffffffffffffffffff021916908373ffffffffffffffffffffffffffffffffffffffff1602179055508173ffffffffffffffffffffffffffffffffffffffff168173ffffffffffffffffffffffffffffffffffffffff167f8be0079c531659141344cd1fd0a4f28419497f9722a3daafe3b4186f6b6457e060405160405180910390a35050565b600073ffffffffffffffffffffffffffffffffffffffff82169050919050565b60006101bf82610194565b9050919050565b6101cf816101b4565b82525050565b60006020820190506101ea60008301846101c6565b92915050565b612815806101ff6000396000f3fe608060405260043610620000495760003560e01c80630ef25a5c14620000c1578063715018a614620001055780638da5cb5b146200011f578063f2fde38b146200014f5762000088565b3662000088577fcf34ef537ac33ee1ac626ca1587a0a7e8e51561e5514f8cb36afa1c5102b3bab6040516200007e9062000617565b60405180910390a1005b7fcf34ef537ac33ee1ac626ca1587a0a7e8e51561e5514f8cb36afa1c5102b3bab604051620000b79062000689565b60405180910390a1005b348015620000ce57600080fd5b50620000ed6004803603810190620000e7919062000715565b6200017d565b604051620000fc91906200076d565b60405180910390f35b3480156200011257600080fd5b506200011d6200037e565b005b3480156200012c57600080fd5b506200013762000396565b6040516200014691906200076d565b60405180910390f35b3480156200015c57600080fd5b506200017b60048036038101906200017591906200078a565b620003bf565b005b6000620001896200044c565b7fcf34ef537ac33ee1ac626ca1587a0a7e8e51561e5514f8cb36afa1c5102b3bab604051620001b8906200080c565b60405180910390a1600082905060008173ffffffffffffffffffffffffffffffffffffffff16639199a07c866040518263ffffffff1660e01b81526004016200020291906200076d565b602060405180830381865afa15801562000220573d6000803e3d6000fd5b505050506040513d601f19601f8201168201806040525081019062000246919062000845565b9050600073ffffffffffffffffffffffffffffffffffffffff168173ffffffffffffffffffffffffffffffffffffffff160362000372576000856040516200028e90620005a8565b6200029a91906200076d565b604051809103906000f080158015620002b7573d6000803e3d6000fd5b5090507f14cb25cca821184a88389fa7823ef6a4cd65897a89cbdcf5169542b8d790478b8187604051620002ed92919062000877565b60405180910390a18273ffffffffffffffffffffffffffffffffffffffff16636fe86f1687836040518363ffffffff1660e01b81526004016200033292919062000877565b600060405180830381600087803b1580156200034d57600080fd5b505af115801562000362573d6000803e3d6000fd5b5050505080935050505062000378565b80925050505b92915050565b620003886200044c565b620003946000620004dc565b565b60008060009054906101000a900473ffffffffffffffffffffffffffffffffffffffff16905090565b620003c96200044c565b600073ffffffffffffffffffffffffffffffffffffffff168173ffffffffffffffffffffffffffffffffffffffff16036200043e5760006040517f1e4fbdf70000000000000000000000000000000000000000000000000000000081526004016200043591906200076d565b60405180910390fd5b6200044981620004dc565b50565b62000456620005a0565b73ffffffffffffffffffffffffffffffffffffffff166200047662000396565b73ffffffffffffffffffffffffffffffffffffffff1614620004da576200049c620005a0565b6040517f118cdaa7000000000000000000000000000000000000000000000000000000008152600401620004d191906200076d565b60405180910390fd5b565b60008060009054906101000a900473ffffffffffffffffffffffffffffffffffffffff169050816000806101000a81548173ffffffffffffffffffffffffffffffffffffffff021916908373ffffffffffffffffffffffffffffffffffffffff1602179055508173ffffffffffffffffffffffffffffffffffffffff168173ffffffffffffffffffffffffffffffffffffffff167f8be0079c531659141344cd1fd0a4f28419497f9722a3daafe3b4186f6b6457e060405160405180910390a35050565b600033905090565b611f3b80620008a583390190565b600082825260208201905092915050565b7f7265636569766500000000000000000000000000000000000000000000000000600082015250565b6000620005ff600783620005b6565b91506200060c82620005c7565b602082019050919050565b600060208201905081810360008301526200063281620005f0565b9050919050565b7f66616c6c6261636b000000000000000000000000000000000000000000000000600082015250565b600062000671600883620005b6565b91506200067e8262000639565b602082019050919050565b60006020820190508181036000830152620006a48162000662565b9050919050565b600080fd5b600073ffffffffffffffffffffffffffffffffffffffff82169050919050565b6000620006dd82620006b0565b9050919050565b620006ef81620006d0565b8114620006fb57600080fd5b50565b6000813590506200070f81620006e4565b92915050565b600080604083850312156200072f576200072e620006ab565b5b60006200073f85828601620006fe565b92505060206200075285828601620006fe565b9150509250929050565b6200076781620006d0565b82525050565b60006020820190506200078460008301846200075c565b92915050565b600060208284031215620007a357620007a2620006ab565b5b6000620007b384828501620006fe565b91505092915050565b7f637265617465416e64416464536d6172744163636f756e740000000000000000600082015250565b6000620007f4601883620005b6565b91506200080182620007bc565b602082019050919050565b600060208201905081810360008301526200082781620007e5565b9050919050565b6000815190506200083f81620006e4565b92915050565b6000602082840312156200085e576200085d620006ab565b5b60006200086e848285016200082e565b91505092915050565b60006040820190506200088e60008301856200075c565b6200089d60208301846200075c565b939250505056fe60806040523480156200001157600080fd5b5060405162001f3b38038062001f3b8339818101604052810190620000379190620001f4565b80600073ffffffffffffffffffffffffffffffffffffffff168173ffffffffffffffffffffffffffffffffffffffff1603620000ad5760006040517f1e4fbdf7000000000000000000000000000000000000000000000000000000008152600401620000a4919062000237565b60405180910390fd5b620000be81620000c660201b60201c565b505062000254565b60008060009054906101000a900473ffffffffffffffffffffffffffffffffffffffff169050816000806101000a81548173ffffffffffffffffffffffffffffffffffffffff021916908373ffffffffffffffffffffffffffffffffffffffff1602179055508173ffffffffffffffffffffffffffffffffffffffff168173ffffffffffffffffffffffffffffffffffffffff167f8be0079c531659141344cd1fd0a4f28419497f9722a3daafe3b4186f6b6457e060405160405180910390a35050565b600080fd5b600073ffffffffffffffffffffffffffffffffffffffff82169050919050565b6000620001bc826200018f565b9050919050565b620001ce81620001af565b8114620001da57600080fd5b50565b600081519050620001ee81620001c3565b92915050565b6000602082840312156200020d576200020c6200018a565b5b60006200021d84828501620001dd565b91505092915050565b6200023181620001af565b82525050565b60006020820190506200024e600083018462000226565b92915050565b611cd780620002646000396000f3fe6080604052600436106100ab5760003560e01c80638da5cb5b116100645780638da5cb5b1461023e578063b69ef8a814610269578063c04ad73d14610294578063d170c52e146102bd578063dd81b82a146102fa578063f2fde38b14610337576100e7565b8063150b7a021461011e57806333c735981461015b5780634c03e0c114610198578063715018a6146101d55780637250b73e146101ec57806376eb373014610215576100e7565b366100e7577fcf34ef537ac33ee1ac626ca1587a0a7e8e51561e5514f8cb36afa1c5102b3bab6040516100dd906112e2565b60405180910390a1005b7fcf34ef537ac33ee1ac626ca1587a0a7e8e51561e5514f8cb36afa1c5102b3bab6040516101149061134e565b60405180910390a1005b34801561012a57600080fd5b506101456004803603810190610140919061147b565b610360565b604051610152919061153e565b60405180910390f35b34801561016757600080fd5b50610182600480360381019061017d919061169a565b61038d565b60405161018f9190611775565b60405180910390f35b3480156101a457600080fd5b506101bf60048036038101906101ba9190611797565b6104ce565b6040516101cc91906117df565b60405180910390f35b3480156101e157600080fd5b506101ea61057c565b005b3480156101f857600080fd5b50610213600480360381019061020e91906117fa565b610590565b005b34801561022157600080fd5b5061023c600480360381019061023791906117fa565b6108c5565b005b34801561024a57600080fd5b50610253610cc0565b6040516102609190611849565b60405180910390f35b34801561027557600080fd5b5061027e610ce9565b60405161028b9190611873565b60405180910390f35b3480156102a057600080fd5b506102bb60048036038101906102b69190611797565b610cf1565b005b3480156102c957600080fd5b506102e460048036038101906102df9190611797565b610e32565b6040516102f191906117df565b60405180910390f35b34801561030657600080fd5b50610321600480360381019061031c919061169a565b610ee0565b60405161032e9190611775565b60405180910390f35b34801561034357600080fd5b5061035e60048036038101906103599190611797565b611021565b005b60006040518060600160405280602f8152602001611c73602f913980519060200120905095945050505050565b60607fcf34ef537ac33ee1ac626ca1587a0a7e8e51561e5514f8cb36afa1c5102b3bab6040516103bc906118da565b60405180910390a160006103cf846104ce565b90508061041357836040517fae384e2300000000000000000000000000000000000000000000000000000000815260040161040a9190611849565b60405180910390fd5b6000808573ffffffffffffffffffffffffffffffffffffffff168560405161043b9190611936565b6000604051808303816000865af19150503d8060008114610478576040519150601f19603f3d011682016040523d82523d6000602084013e61047d565b606091505b5091509150816104c2576040517f08c379a00000000000000000000000000000000000000000000000000000000081526004016104b990611999565b60405180910390fd5b80935050505092915050565b6000806000905060005b60018054905081101561057257600181815481106104f9576104f86119b9565b5b9060005260206000200160009054906101000a900473ffffffffffffffffffffffffffffffffffffffff1673ffffffffffffffffffffffffffffffffffffffff168473ffffffffffffffffffffffffffffffffffffffff160361055f5760019150610572565b808061056a90611a17565b9150506104d8565b5080915050919050565b6105846110a7565b61058e600061112e565b565b7fcf34ef537ac33ee1ac626ca1587a0a7e8e51561e5514f8cb36afa1c5102b3bab6040516105bd90611aab565b60405180910390a1600073ffffffffffffffffffffffffffffffffffffffff168273ffffffffffffffffffffffffffffffffffffffff1603610634576040517f08c379a000000000000000000000000000000000000000000000000000000000815260040161062b90611b17565b60405180910390fd5b6000600360008473ffffffffffffffffffffffffffffffffffffffff1673ffffffffffffffffffffffffffffffffffffffff1681526020019081526020016000208054806020026020016040519081016040528092919081815260200182805480156106bf57602002820191906000526020600020905b8154815260200190600101908083116106ab575b5050505050905060008151036107d4576002839080600181540180825580915050600190039060005260206000200160009091909190916101000a81548173ffffffffffffffffffffffffffffffffffffffff021916908373ffffffffffffffffffffffffffffffffffffffff160217905550600360008473ffffffffffffffffffffffffffffffffffffffff1673ffffffffffffffffffffffffffffffffffffffff1681526020019081526020016000208290806001815401808255809150506001900390600052602060002001600090919091909150557f89c66952b48f3e96bf1d8ba1b63189520fd988a6979b8b740bd5c5d8dc53e205836040516107c79190611849565b60405180910390a16108c0565b6000805b825181101561081a578281815181106107f4576107f36119b9565b5b6020026020010151840361080757600191505b808061081290611a17565b9150506107d8565b50806108be57600360008573ffffffffffffffffffffffffffffffffffffffff1673ffffffffffffffffffffffffffffffffffffffff1681526020019081526020016000208390806001815401808255809150506001900390600052602060002001600090919091909150557f89c66952b48f3e96bf1d8ba1b63189520fd988a6979b8b740bd5c5d8dc53e205846040516108b59190611849565b60405180910390a15b505b505050565b7fcf34ef537ac33ee1ac626ca1587a0a7e8e51561e5514f8cb36afa1c5102b3bab6040516108f290611b83565b60405180910390a1600073ffffffffffffffffffffffffffffffffffffffff168273ffffffffffffffffffffffffffffffffffffffff1603610969576040517f08c379a000000000000000000000000000000000000000000000000000000000815260040161096090611b17565b60405180910390fd5b6000600360008473ffffffffffffffffffffffffffffffffffffffff1673ffffffffffffffffffffffffffffffffffffffff1681526020019081526020016000208054806020026020016040519081016040528092919081815260200182805480156109f457602002820191906000526020600020905b8154815260200190600101908083116109e0575b505050505090506001815103610b7857600360008473ffffffffffffffffffffffffffffffffffffffff1673ffffffffffffffffffffffffffffffffffffffff1681526020019081526020016000206000610a4f91906111fa565b60005b600280549050811015610b2b5760028181548110610a7357610a726119b9565b5b9060005260206000200160009054906101000a900473ffffffffffffffffffffffffffffffffffffffff1673ffffffffffffffffffffffffffffffffffffffff168473ffffffffffffffffffffffffffffffffffffffff1614610b18578160018351610adf9190611ba3565b81518110610af057610aef6119b9565b5b6020026020010151828281518110610b0b57610b0a6119b9565b5b6020026020010181815250505b8080610b2390611a17565b915050610a52565b506002805480610b3e57610b3d611bd7565b5b6001900381819060005260206000200160006101000a81549073ffffffffffffffffffffffffffffffffffffffff02191690559055610cbb565b60005b8151811015610c0057818181518110610b9757610b966119b9565b5b60200260200101518314610bed578160018351610bb49190611ba3565b81518110610bc557610bc46119b9565b5b6020026020010151828281518110610be057610bdf6119b9565b5b6020026020010181815250505b8080610bf890611a17565b915050610b7b565b5080600360008573ffffffffffffffffffffffffffffffffffffffff1673ffffffffffffffffffffffffffffffffffffffff1681526020019081526020016000209080519060200190610c5492919061121b565b50600360008473ffffffffffffffffffffffffffffffffffffffff1673ffffffffffffffffffffffffffffffffffffffff168152602001908152602001600020805480610ca457610ca3611bd7565b5b600190038181906000526020600020016000905590555b505050565b60008060009054906101000a900473ffffffffffffffffffffffffffffffffffffffff16905090565b600047905090565b7fcf34ef537ac33ee1ac626ca1587a0a7e8e51561e5514f8cb36afa1c5102b3bab604051610d1e90611c52565b60405180910390a1600073ffffffffffffffffffffffffffffffffffffffff168173ffffffffffffffffffffffffffffffffffffffff1603610d95576040517f08c379a0000000000000000000000000000000000000000000000000000000008152600401610d8c90611b17565b60405180910390fd5b6001819080600181540180825580915050600190039060005260206000200160009091909190916101000a81548173ffffffffffffffffffffffffffffffffffffffff021916908373ffffffffffffffffffffffffffffffffffffffff1602179055507f89c66952b48f3e96bf1d8ba1b63189520fd988a6979b8b740bd5c5d8dc53e20581604051610e279190611849565b60405180910390a150565b6000806000905060005b600280549050811015610ed65760028181548110610e5d57610e5c6119b9565b5b9060005260206000200160009054906101000a900473ffffffffffffffffffffffffffffffffffffffff1673ffffffffffffffffffffffffffffffffffffffff168473ffffffffffffffffffffffffffffffffffffffff1603610ec35760019150610ed6565b8080610ece90611a17565b915050610e3c565b5080915050919050565b60607fcf34ef537ac33ee1ac626ca1587a0a7e8e51561e5514f8cb36afa1c5102b3bab604051610f0f906118da565b60405180910390a16000610f2284610e32565b905080610f6657836040517fae384e23000000000000000000000000000000000000000000000000000000008152600401610f5d9190611849565b60405180910390fd5b6000808573ffffffffffffffffffffffffffffffffffffffff1685604051610f8e9190611936565b6000604051808303816000865af19150503d8060008114610fcb576040519150601f19603f3d011682016040523d82523d6000602084013e610fd0565b606091505b509150915081611015576040517f08c379a000000000000000000000000000000000000000000000000000000000815260040161100c90611999565b60405180910390fd5b80935050505092915050565b6110296110a7565b600073ffffffffffffffffffffffffffffffffffffffff168173ffffffffffffffffffffffffffffffffffffffff160361109b5760006040517f1e4fbdf70000000000000000000000000000000000000000000000000000000081526004016110929190611849565b60405180910390fd5b6110a48161112e565b50565b6110af6111f2565b73ffffffffffffffffffffffffffffffffffffffff166110cd610cc0565b73ffffffffffffffffffffffffffffffffffffffff161461112c576110f06111f2565b6040517f118cdaa70000000000000000000000000000000000000000000000000000000081526004016111239190611849565b60405180910390fd5b565b60008060009054906101000a900473ffffffffffffffffffffffffffffffffffffffff169050816000806101000a81548173ffffffffffffffffffffffffffffffffffffffff021916908373ffffffffffffffffffffffffffffffffffffffff1602179055508173ffffffffffffffffffffffffffffffffffffffff168173ffffffffffffffffffffffffffffffffffffffff167f8be0079c531659141344cd1fd0a4f28419497f9722a3daafe3b4186f6b6457e060405160405180910390a35050565b600033905090565b50805460008255906000526020600020908101906112189190611268565b50565b828054828255906000526020600020908101928215611257579160200282015b8281111561125657825182559160200191906001019061123b565b5b5090506112649190611268565b5090565b5b80821115611281576000816000905550600101611269565b5090565b600082825260208201905092915050565b7f7265636569766500000000000000000000000000000000000000000000000000600082015250565b60006112cc600783611285565b91506112d782611296565b602082019050919050565b600060208201905081810360008301526112fb816112bf565b9050919050565b7f66616c6c6261636b000000000000000000000000000000000000000000000000600082015250565b6000611338600883611285565b915061134382611302565b602082019050919050565b600060208201905081810360008301526113678161132b565b9050919050565b6000604051905090565b600080fd5b600080fd5b600073ffffffffffffffffffffffffffffffffffffffff82169050919050565b60006113ad82611382565b9050919050565b6113bd816113a2565b81146113c857600080fd5b50565b6000813590506113da816113b4565b92915050565b6000819050919050565b6113f3816113e0565b81146113fe57600080fd5b50565b600081359050611410816113ea565b92915050565b600080fd5b600080fd5b600080fd5b60008083601f84011261143b5761143a611416565b5b8235905067ffffffffffffffff8111156114585761145761141b565b5b60208301915083600182028301111561147457611473611420565b5b9250929050565b60008060008060006080868803121561149757611496611378565b5b60006114a5888289016113cb565b95505060206114b6888289016113cb565b94505060406114c788828901611401565b935050606086013567ffffffffffffffff8111156114e8576114e761137d565b5b6114f488828901611425565b92509250509295509295909350565b60007fffffffff0000000000000000000000000000000000000000000000000000000082169050919050565b61153881611503565b82525050565b6000602082019050611553600083018461152f565b92915050565b600080fd5b6000601f19601f8301169050919050565b7f4e487b7100000000000000000000000000000000000000000000000000000000600052604160045260246000fd5b6115a78261155e565b810181811067ffffffffffffffff821117156115c6576115c561156f565b5b80604052505050565b60006115d961136e565b90506115e5828261159e565b919050565b600067ffffffffffffffff8211156116055761160461156f565b5b61160e8261155e565b9050602081019050919050565b82818337600083830152505050565b600061163d611638846115ea565b6115cf565b90508281526020810184848401111561165957611658611559565b5b61166484828561161b565b509392505050565b600082601f83011261168157611680611416565b5b813561169184826020860161162a565b91505092915050565b600080604083850312156116b1576116b0611378565b5b60006116bf858286016113cb565b925050602083013567ffffffffffffffff8111156116e0576116df61137d565b5b6116ec8582860161166c565b9150509250929050565b600081519050919050565b600082825260208201905092915050565b60005b83811015611730578082015181840152602081019050611715565b60008484015250505050565b6000611747826116f6565b6117518185611701565b9350611761818560208601611712565b61176a8161155e565b840191505092915050565b6000602082019050818103600083015261178f818461173c565b905092915050565b6000602082840312156117ad576117ac611378565b5b60006117bb848285016113cb565b91505092915050565b60008115159050919050565b6117d9816117c4565b82525050565b60006020820190506117f460008301846117d0565b92915050565b6000806040838503121561181157611810611378565b5b600061181f858286016113cb565b925050602061183085828601611401565b9150509250929050565b611843816113a2565b82525050565b600060208201905061185e600083018461183a565b92915050565b61186d816113e0565b82525050565b60006020820190506118886000830184611864565b92915050565b7f657263323043616c6c6572000000000000000000000000000000000000000000600082015250565b60006118c4600b83611285565b91506118cf8261188e565b602082019050919050565b600060208201905081810360008301526118f3816118b7565b9050919050565b600081905092915050565b6000611910826116f6565b61191a81856118fa565b935061192a818560208601611712565b80840191505092915050565b60006119428284611905565b915081905092915050565b7f66756e6374696f6e2063616c6c206661696c6564000000000000000000000000600082015250565b6000611983601483611285565b915061198e8261194d565b602082019050919050565b600060208201905081810360008301526119b281611976565b9050919050565b7f4e487b7100000000000000000000000000000000000000000000000000000000600052603260045260246000fd5b7f4e487b7100000000000000000000000000000000000000000000000000000000600052601160045260246000fd5b6000611a22826113e0565b91507fffffffffffffffffffffffffffffffffffffffffffffffffffffffffffffffff8203611a5457611a536119e8565b5b600182019050919050565b7f616464657263373231436f6e7472616374000000000000000000000000000000600082015250565b6000611a95601183611285565b9150611aa082611a5f565b602082019050919050565b60006020820190508181036000830152611ac481611a88565b9050919050565b7f7a65726f20616464726573730000000000000000000000000000000000000000600082015250565b6000611b01600c83611285565b9150611b0c82611acb565b602082019050919050565b60006020820190508181036000830152611b3081611af4565b9050919050565b7f757064617465657263373231436f6e7472616374000000000000000000000000600082015250565b6000611b6d601483611285565b9150611b7882611b37565b602082019050919050565b60006020820190508181036000830152611b9c81611b60565b9050919050565b6000611bae826113e0565b9150611bb9836113e0565b9250828203905081811115611bd157611bd06119e8565b5b92915050565b7f4e487b7100000000000000000000000000000000000000000000000000000000600052603160045260246000fd5b7f6164646572633230436f6e747261637400000000000000000000000000000000600082015250565b6000611c3c601083611285565b9150611c4782611c06565b602082019050919050565b60006020820190508181036000830152611c6b81611c2f565b905091905056fe6f6e455243373231526563656976656428616464726573732c616464726573732c75696e743235362c627974657329a26469706673582212205d4388d4ba2ededca9bc63b977c263b91a06789c6c039d4e8148766cd8b242f064736f6c63430008140033a2646970667358221220d2cd79fbecc429c54c7b1b5ba63d809c5045fcd9a9a5ae1b0818fc827defa87064736f6c63430008140033",
  "devdoc": {
    "errors": {
      "OwnableInvalidOwner(address)": [
        {
          "details": "The owner is not a valid owner account. (eg. `address(0)`)"
        }
      ],
      "OwnableUnauthorizedAccount(address)": [
        {
          "details": "The caller account is not authorized to perform an operation."
        }
      ]
    },
    "kind": "dev",
    "methods": {
      "owner()": {
        "details": "Returns the address of the current owner."
      },
      "renounceOwnership()": {
        "details": "Leaves the contract without owner. It will not be possible to call `onlyOwner` functions. Can only be called by the current owner. NOTE: Renouncing ownership will leave the contract without an owner, thereby disabling any functionality that is only available to the owner."
      },
      "transferOwnership(address)": {
        "details": "Transfers ownership of the contract to a new account (`newOwner`). Can only be called by the current owner."
      }
    },
    "version": 1
  },
  "userdoc": {
    "kind": "user",
    "methods": {},
    "version": 1
  },
  "storageLayout": {
    "storage": [
      {
        "astId": 8,
        "contract": "contracts/SmartAccountDeployer.sol:SmartAccountDeployer",
        "label": "_owner",
        "offset": 0,
        "slot": "0",
        "type": "t_address"
      }
    ],
    "types": {
      "t_address": {
        "encoding": "inplace",
        "label": "address",
        "numberOfBytes": "20"
      }
    }
  }
}