{
  "_format": "hh-sol-artifact-1",
  "contractName": "Test1",
  "sourceName": "contracts/test1.sol",
  "abi": [
    {
      "inputs": [],
      "stateMutability": "nonpayable",
      "type": "constructor"
    },
    {
      "inputs": [],
      "name": "a",
      "outputs": [
        {
          "internalType": "uint256",
          "name": "",
          "type": "uint256"
        }
      ],
      "stateMutability": "view",
      "type": "function"
    },
    {
      "inputs": [],
      "name": "getter",
      "outputs": [
        {
          "internalType": "uint256",
          "name": "",
          "type": "uint256"
        }
      ],
      "stateMutability": "view",
      "type": "function"
    },
    {
      "inputs": [],
      "name": "setter",
      "outputs": [],
      "stateMutability": "nonpayable",
      "type": "function"
    }
  ],
  "bytecode": "0x608060405234801561001057600080fd5b506001600081905550610195806100286000396000f3fe608060405234801561001057600080fd5b50600436106100415760003560e01c80630dbe671f146100465780633f3108f714610064578063993a04b71461006e575b600080fd5b61004e61008c565b60405161005b91906100cd565b60405180910390f35b61006c610092565b005b6100766100ab565b60405161008391906100cd565b60405180910390f35b60005481565b6000808154809291906100a490610117565b9190505550565b60008054905090565b6000819050919050565b6100c7816100b4565b82525050565b60006020820190506100e260008301846100be565b92915050565b7f4e487b7100000000000000000000000000000000000000000000000000000000600052601160045260246000fd5b6000610122826100b4565b91507fffffffffffffffffffffffffffffffffffffffffffffffffffffffffffffffff8203610154576101536100e8565b5b60018201905091905056fea2646970667358221220053a2ab7ecfd0260f669f048ddcd8edeb46fdba2eaa6a4fdc91a59470d44386364736f6c63430008140033",
  "linkReferences": {},
  "deployedLinkReferences": {}
}