{
  "_format": "hh-sol-artifact-1",
  "contractName": "SmartWallet",
  "sourceName": "contracts/SmartWallet.sol",
  "abi": [
    {
      "inputs": [
        {
          "internalType": "address",
          "name": "owner",
          "type": "address"
        }
      ],
      "stateMutability": "nonpayable",
      "type": "constructor"
    },
    {
      "inputs": [
        {
          "internalType": "address",
          "name": "owner",
          "type": "address"
        }
      ],
      "name": "OwnableInvalidOwner",
      "type": "error"
    },
    {
      "inputs": [
        {
          "internalType": "address",
          "name": "account",
          "type": "address"
        }
      ],
      "name": "OwnableUnauthorizedAccount",
      "type": "error"
    },
    {
      "inputs": [
        {
          "internalType": "address",
          "name": "",
          "type": "address"
        }
      ],
      "name": "notAnOWner",
      "type": "error"
    },
    {
      "anonymous": false,
      "inputs": [
        {
          "indexed": false,
          "internalType": "address",
          "name": "_contract",
          "type": "address"
        }
      ],
      "name": "ContractAdded",
      "type": "event"
    },
    {
      "anonymous": false,
      "inputs": [
        {
          "indexed": false,
          "internalType": "string",
          "name": "func",
          "type": "string"
        }
      ],
      "name": "Log",
      "type": "event"
    },
    {
      "anonymous": false,
      "inputs": [
        {
          "indexed": true,
          "internalType": "address",
          "name": "previousOwner",
          "type": "address"
        },
        {
          "indexed": true,
          "internalType": "address",
          "name": "newOwner",
          "type": "address"
        }
      ],
      "name": "OwnershipTransferred",
      "type": "event"
    },
    {
      "stateMutability": "payable",
      "type": "fallback"
    },
    {
      "inputs": [
        {
          "internalType": "address",
          "name": "contractAddress",
          "type": "address"
        }
      ],
      "name": "adderc20Contract",
      "outputs": [],
      "stateMutability": "nonpayable",
      "type": "function"
    },
    {
      "inputs": [
        {
          "internalType": "address",
          "name": "contractAddress",
          "type": "address"
        }
      ],
      "name": "adderc721Contract",
      "outputs": [],
      "stateMutability": "nonpayable",
      "type": "function"
    },
    {
      "inputs": [],
      "name": "balance",
      "outputs": [
        {
          "internalType": "uint256",
          "name": "",
          "type": "uint256"
        }
      ],
      "stateMutability": "view",
      "type": "function"
    },
    {
      "inputs": [
        {
          "internalType": "address",
          "name": "contAddress",
          "type": "address"
        },
        {
          "internalType": "bytes",
          "name": "funcNameWithARguments",
          "type": "bytes"
        }
      ],
      "name": "erc20Caller",
      "outputs": [
        {
          "internalType": "bytes",
          "name": "",
          "type": "bytes"
        }
      ],
      "stateMutability": "nonpayable",
      "type": "function"
    },
    {
      "inputs": [
        {
          "internalType": "address",
          "name": "contAddress",
          "type": "address"
        },
        {
          "internalType": "bytes",
          "name": "funcNameWithARguments",
          "type": "bytes"
        }
      ],
      "name": "erc721Caller",
      "outputs": [
        {
          "internalType": "bytes",
          "name": "",
          "type": "bytes"
        }
      ],
      "stateMutability": "nonpayable",
      "type": "function"
    },
    {
      "inputs": [
        {
          "internalType": "address",
          "name": "contAddress",
          "type": "address"
        }
      ],
      "name": "iserc20TokenOwner",
      "outputs": [
        {
          "internalType": "bool",
          "name": "",
          "type": "bool"
        }
      ],
      "stateMutability": "view",
      "type": "function"
    },
    {
      "inputs": [
        {
          "internalType": "address",
          "name": "contAddress",
          "type": "address"
        }
      ],
      "name": "iserc721TokenOwner",
      "outputs": [
        {
          "internalType": "bool",
          "name": "",
          "type": "bool"
        }
      ],
      "stateMutability": "view",
      "type": "function"
    },
    {
      "inputs": [],
      "name": "owner",
      "outputs": [
        {
          "internalType": "address",
          "name": "",
          "type": "address"
        }
      ],
      "stateMutability": "view",
      "type": "function"
    },
    {
      "inputs": [],
      "name": "renounceOwnership",
      "outputs": [],
      "stateMutability": "nonpayable",
      "type": "function"
    },
    {
      "inputs": [
        {
          "internalType": "address",
          "name": "newOwner",
          "type": "address"
        }
      ],
      "name": "transferOwnership",
      "outputs": [],
      "stateMutability": "nonpayable",
      "type": "function"
    },
    {
      "stateMutability": "payable",
      "type": "receive"
    }
  ],
  "bytecode": "0x60806040523480156200001157600080fd5b5060405162001578380380620015788339818101604052810190620000379190620001f4565b80600073ffffffffffffffffffffffffffffffffffffffff168173ffffffffffffffffffffffffffffffffffffffff1603620000ad5760006040517f1e4fbdf7000000000000000000000000000000000000000000000000000000008152600401620000a4919062000237565b60405180910390fd5b620000be81620000c660201b60201c565b505062000254565b60008060009054906101000a900473ffffffffffffffffffffffffffffffffffffffff169050816000806101000a81548173ffffffffffffffffffffffffffffffffffffffff021916908373ffffffffffffffffffffffffffffffffffffffff1602179055508173ffffffffffffffffffffffffffffffffffffffff168173ffffffffffffffffffffffffffffffffffffffff167f8be0079c531659141344cd1fd0a4f28419497f9722a3daafe3b4186f6b6457e060405160405180910390a35050565b600080fd5b600073ffffffffffffffffffffffffffffffffffffffff82169050919050565b6000620001bc826200018f565b9050919050565b620001ce81620001af565b8114620001da57600080fd5b50565b600081519050620001ee81620001c3565b92915050565b6000602082840312156200020d576200020c6200018a565b5b60006200021d84828501620001dd565b91505092915050565b6200023181620001af565b82525050565b60006020820190506200024e600083018462000226565b92915050565b61131480620002646000396000f3fe6080604052600436106100955760003560e01c8063b69ef8a811610059578063b69ef8a8146101ed578063c04ad73d14610218578063d170c52e14610241578063dd81b82a1461027e578063f2fde38b146102bb576100d1565b806333c73598146101085780634c03e0c114610145578063715018a6146101825780638da5cb5b146101995780639d63aab2146101c4576100d1565b366100d1577fcf34ef537ac33ee1ac626ca1587a0a7e8e51561e5514f8cb36afa1c5102b3bab6040516100c790610bc7565b60405180910390a1005b7fcf34ef537ac33ee1ac626ca1587a0a7e8e51561e5514f8cb36afa1c5102b3bab6040516100fe90610c33565b60405180910390a1005b34801561011457600080fd5b5061012f600480360381019061012a9190610e0b565b6102e4565b60405161013c9190610ee6565b60405180910390f35b34801561015157600080fd5b5061016c60048036038101906101679190610f08565b610425565b6040516101799190610f50565b60405180910390f35b34801561018e57600080fd5b506101976104d3565b005b3480156101a557600080fd5b506101ae6104e7565b6040516101bb9190610f7a565b60405180910390f35b3480156101d057600080fd5b506101eb60048036038101906101e69190610f08565b610510565b005b3480156101f957600080fd5b50610202610651565b60405161020f9190610fae565b60405180910390f35b34801561022457600080fd5b5061023f600480360381019061023a9190610f08565b610661565b005b34801561024d57600080fd5b5061026860048036038101906102639190610f08565b6107a2565b6040516102759190610f50565b60405180910390f35b34801561028a57600080fd5b506102a560048036038101906102a09190610e0b565b610850565b6040516102b29190610ee6565b60405180910390f35b3480156102c757600080fd5b506102e260048036038101906102dd9190610f08565b610991565b005b60607fcf34ef537ac33ee1ac626ca1587a0a7e8e51561e5514f8cb36afa1c5102b3bab60405161031390611015565b60405180910390a1600061032684610425565b90508061036a57836040517fae384e230000000000000000000000000000000000000000000000000000000081526004016103619190610f7a565b60405180910390fd5b6000808573ffffffffffffffffffffffffffffffffffffffff16856040516103929190611071565b6000604051808303816000865af19150503d80600081146103cf576040519150601f19603f3d011682016040523d82523d6000602084013e6103d4565b606091505b509150915081610419576040517f08c379a0000000000000000000000000000000000000000000000000000000008152600401610410906110d4565b60405180910390fd5b80935050505092915050565b6000806000905060005b6001805490508110156104c957600181815481106104505761044f6110f4565b5b9060005260206000200160009054906101000a900473ffffffffffffffffffffffffffffffffffffffff1673ffffffffffffffffffffffffffffffffffffffff168473ffffffffffffffffffffffffffffffffffffffff16036104b657600191506104c9565b80806104c190611152565b91505061042f565b5080915050919050565b6104db610a17565b6104e56000610a9e565b565b60008060009054906101000a900473ffffffffffffffffffffffffffffffffffffffff16905090565b7fcf34ef537ac33ee1ac626ca1587a0a7e8e51561e5514f8cb36afa1c5102b3bab60405161053d906111e6565b60405180910390a1600073ffffffffffffffffffffffffffffffffffffffff168173ffffffffffffffffffffffffffffffffffffffff16036105b4576040517f08c379a00000000000000000000000000000000000000000000000000000000081526004016105ab90611252565b60405180910390fd5b6002819080600181540180825580915050600190039060005260206000200160009091909190916101000a81548173ffffffffffffffffffffffffffffffffffffffff021916908373ffffffffffffffffffffffffffffffffffffffff1602179055507f89c66952b48f3e96bf1d8ba1b63189520fd988a6979b8b740bd5c5d8dc53e205816040516106469190610f7a565b60405180910390a150565b600061065b610a17565b47905090565b7fcf34ef537ac33ee1ac626ca1587a0a7e8e51561e5514f8cb36afa1c5102b3bab60405161068e906112be565b60405180910390a1600073ffffffffffffffffffffffffffffffffffffffff168173ffffffffffffffffffffffffffffffffffffffff1603610705576040517f08c379a00000000000000000000000000000000000000000000000000000000081526004016106fc90611252565b60405180910390fd5b6001819080600181540180825580915050600190039060005260206000200160009091909190916101000a81548173ffffffffffffffffffffffffffffffffffffffff021916908373ffffffffffffffffffffffffffffffffffffffff1602179055507f89c66952b48f3e96bf1d8ba1b63189520fd988a6979b8b740bd5c5d8dc53e205816040516107979190610f7a565b60405180910390a150565b6000806000905060005b60028054905081101561084657600281815481106107cd576107cc6110f4565b5b9060005260206000200160009054906101000a900473ffffffffffffffffffffffffffffffffffffffff1673ffffffffffffffffffffffffffffffffffffffff168473ffffffffffffffffffffffffffffffffffffffff16036108335760019150610846565b808061083e90611152565b9150506107ac565b5080915050919050565b60607fcf34ef537ac33ee1ac626ca1587a0a7e8e51561e5514f8cb36afa1c5102b3bab60405161087f90611015565b60405180910390a16000610892846107a2565b9050806108d657836040517fae384e230000000000000000000000000000000000000000000000000000000081526004016108cd9190610f7a565b60405180910390fd5b6000808573ffffffffffffffffffffffffffffffffffffffff16856040516108fe9190611071565b6000604051808303816000865af19150503d806000811461093b576040519150601f19603f3d011682016040523d82523d6000602084013e610940565b606091505b509150915081610985576040517f08c379a000000000000000000000000000000000000000000000000000000000815260040161097c906110d4565b60405180910390fd5b80935050505092915050565b610999610a17565b600073ffffffffffffffffffffffffffffffffffffffff168173ffffffffffffffffffffffffffffffffffffffff1603610a0b5760006040517f1e4fbdf7000000000000000000000000000000000000000000000000000000008152600401610a029190610f7a565b60405180910390fd5b610a1481610a9e565b50565b610a1f610b62565b73ffffffffffffffffffffffffffffffffffffffff16610a3d6104e7565b73ffffffffffffffffffffffffffffffffffffffff1614610a9c57610a60610b62565b6040517f118cdaa7000000000000000000000000000000000000000000000000000000008152600401610a939190610f7a565b60405180910390fd5b565b60008060009054906101000a900473ffffffffffffffffffffffffffffffffffffffff169050816000806101000a81548173ffffffffffffffffffffffffffffffffffffffff021916908373ffffffffffffffffffffffffffffffffffffffff1602179055508173ffffffffffffffffffffffffffffffffffffffff168173ffffffffffffffffffffffffffffffffffffffff167f8be0079c531659141344cd1fd0a4f28419497f9722a3daafe3b4186f6b6457e060405160405180910390a35050565b600033905090565b600082825260208201905092915050565b7f7265636569766500000000000000000000000000000000000000000000000000600082015250565b6000610bb1600783610b6a565b9150610bbc82610b7b565b602082019050919050565b60006020820190508181036000830152610be081610ba4565b9050919050565b7f66616c6c6261636b000000000000000000000000000000000000000000000000600082015250565b6000610c1d600883610b6a565b9150610c2882610be7565b602082019050919050565b60006020820190508181036000830152610c4c81610c10565b9050919050565b6000604051905090565b600080fd5b600080fd5b600073ffffffffffffffffffffffffffffffffffffffff82169050919050565b6000610c9282610c67565b9050919050565b610ca281610c87565b8114610cad57600080fd5b50565b600081359050610cbf81610c99565b92915050565b600080fd5b600080fd5b6000601f19601f8301169050919050565b7f4e487b7100000000000000000000000000000000000000000000000000000000600052604160045260246000fd5b610d1882610ccf565b810181811067ffffffffffffffff82111715610d3757610d36610ce0565b5b80604052505050565b6000610d4a610c53565b9050610d568282610d0f565b919050565b600067ffffffffffffffff821115610d7657610d75610ce0565b5b610d7f82610ccf565b9050602081019050919050565b82818337600083830152505050565b6000610dae610da984610d5b565b610d40565b905082815260208101848484011115610dca57610dc9610cca565b5b610dd5848285610d8c565b509392505050565b600082601f830112610df257610df1610cc5565b5b8135610e02848260208601610d9b565b91505092915050565b60008060408385031215610e2257610e21610c5d565b5b6000610e3085828601610cb0565b925050602083013567ffffffffffffffff811115610e5157610e50610c62565b5b610e5d85828601610ddd565b9150509250929050565b600081519050919050565b600082825260208201905092915050565b60005b83811015610ea1578082015181840152602081019050610e86565b60008484015250505050565b6000610eb882610e67565b610ec28185610e72565b9350610ed2818560208601610e83565b610edb81610ccf565b840191505092915050565b60006020820190508181036000830152610f008184610ead565b905092915050565b600060208284031215610f1e57610f1d610c5d565b5b6000610f2c84828501610cb0565b91505092915050565b60008115159050919050565b610f4a81610f35565b82525050565b6000602082019050610f656000830184610f41565b92915050565b610f7481610c87565b82525050565b6000602082019050610f8f6000830184610f6b565b92915050565b6000819050919050565b610fa881610f95565b82525050565b6000602082019050610fc36000830184610f9f565b92915050565b7f657263323043616c6c6572000000000000000000000000000000000000000000600082015250565b6000610fff600b83610b6a565b915061100a82610fc9565b602082019050919050565b6000602082019050818103600083015261102e81610ff2565b9050919050565b600081905092915050565b600061104b82610e67565b6110558185611035565b9350611065818560208601610e83565b80840191505092915050565b600061107d8284611040565b915081905092915050565b7f66756e6374696f6e2063616c6c206661696c6564000000000000000000000000600082015250565b60006110be601483610b6a565b91506110c982611088565b602082019050919050565b600060208201905081810360008301526110ed816110b1565b9050919050565b7f4e487b7100000000000000000000000000000000000000000000000000000000600052603260045260246000fd5b7f4e487b7100000000000000000000000000000000000000000000000000000000600052601160045260246000fd5b600061115d82610f95565b91507fffffffffffffffffffffffffffffffffffffffffffffffffffffffffffffffff820361118f5761118e611123565b5b600182019050919050565b7f616464657263373231436f6e7472616374000000000000000000000000000000600082015250565b60006111d0601183610b6a565b91506111db8261119a565b602082019050919050565b600060208201905081810360008301526111ff816111c3565b9050919050565b7f7a65726f20616464726573730000000000000000000000000000000000000000600082015250565b600061123c600c83610b6a565b915061124782611206565b602082019050919050565b6000602082019050818103600083015261126b8161122f565b9050919050565b7f6164646572633230436f6e747261637400000000000000000000000000000000600082015250565b60006112a8601083610b6a565b91506112b382611272565b602082019050919050565b600060208201905081810360008301526112d78161129b565b905091905056fea2646970667358221220a6ba62bdacd89c23f3913855b1a72d16bee0d3fc77c240aa8d705716fc6f257e64736f6c63430008140033",
  "linkReferences": {},
  "deployedLinkReferences": {}
}