{
  "_format": "hh-sol-artifact-1",
  "contractName": "SmartWallet",
  "sourceName": "contracts/SmartWallet.sol",
  "abi": [
    {
      "inputs": [
        {
          "internalType": "address",
          "name": "owner",
          "type": "address"
        }
      ],
      "stateMutability": "nonpayable",
      "type": "constructor"
    },
    {
      "inputs": [
        {
          "internalType": "address",
          "name": "owner",
          "type": "address"
        }
      ],
      "name": "OwnableInvalidOwner",
      "type": "error"
    },
    {
      "inputs": [
        {
          "internalType": "address",
          "name": "account",
          "type": "address"
        }
      ],
      "name": "OwnableUnauthorizedAccount",
      "type": "error"
    },
    {
      "inputs": [
        {
          "internalType": "address",
          "name": "",
          "type": "address"
        }
      ],
      "name": "notAnOWner",
      "type": "error"
    },
    {
      "anonymous": false,
      "inputs": [
        {
          "indexed": false,
          "internalType": "address",
          "name": "_contract",
          "type": "address"
        }
      ],
      "name": "ContractAdded",
      "type": "event"
    },
    {
      "anonymous": false,
      "inputs": [
        {
          "indexed": false,
          "internalType": "string",
          "name": "func",
          "type": "string"
        }
      ],
      "name": "Log",
      "type": "event"
    },
    {
      "anonymous": false,
      "inputs": [
        {
          "indexed": true,
          "internalType": "address",
          "name": "previousOwner",
          "type": "address"
        },
        {
          "indexed": true,
          "internalType": "address",
          "name": "newOwner",
          "type": "address"
        }
      ],
      "name": "OwnershipTransferred",
      "type": "event"
    },
    {
      "stateMutability": "payable",
      "type": "fallback"
    },
    {
      "inputs": [
        {
          "internalType": "address",
          "name": "contractAddress",
          "type": "address"
        }
      ],
      "name": "adderc20Contract",
      "outputs": [],
      "stateMutability": "nonpayable",
      "type": "function"
    },
    {
      "inputs": [
        {
          "internalType": "address",
          "name": "contractAddress",
          "type": "address"
        },
        {
          "internalType": "uint256",
          "name": "tokenId",
          "type": "uint256"
        }
      ],
      "name": "adderc721Contract",
      "outputs": [],
      "stateMutability": "nonpayable",
      "type": "function"
    },
    {
      "inputs": [],
      "name": "balance",
      "outputs": [
        {
          "internalType": "uint256",
          "name": "",
          "type": "uint256"
        }
      ],
      "stateMutability": "view",
      "type": "function"
    },
    {
      "inputs": [
        {
          "internalType": "address",
          "name": "contAddress",
          "type": "address"
        },
        {
          "internalType": "bytes",
          "name": "funcNameWithARguments",
          "type": "bytes"
        }
      ],
      "name": "erc20Caller",
      "outputs": [
        {
          "internalType": "bytes",
          "name": "",
          "type": "bytes"
        }
      ],
      "stateMutability": "nonpayable",
      "type": "function"
    },
    {
      "inputs": [
        {
          "internalType": "address",
          "name": "contAddress",
          "type": "address"
        },
        {
          "internalType": "bytes",
          "name": "funcNameWithARguments",
          "type": "bytes"
        }
      ],
      "name": "erc721Caller",
      "outputs": [
        {
          "internalType": "bytes",
          "name": "",
          "type": "bytes"
        }
      ],
      "stateMutability": "nonpayable",
      "type": "function"
    },
    {
      "inputs": [
        {
          "internalType": "address",
          "name": "contAddress",
          "type": "address"
        }
      ],
      "name": "erc721ToTokenIdRead",
      "outputs": [
        {
          "internalType": "uint256[]",
          "name": "",
          "type": "uint256[]"
        }
      ],
      "stateMutability": "view",
      "type": "function"
    },
    {
      "inputs": [
        {
          "internalType": "address",
          "name": "contAddress",
          "type": "address"
        }
      ],
      "name": "iserc20TokenOwner",
      "outputs": [
        {
          "internalType": "bool",
          "name": "",
          "type": "bool"
        }
      ],
      "stateMutability": "view",
      "type": "function"
    },
    {
      "inputs": [
        {
          "internalType": "address",
          "name": "contAddress",
          "type": "address"
        }
      ],
      "name": "iserc721TokenOwner",
      "outputs": [
        {
          "internalType": "bool",
          "name": "",
          "type": "bool"
        }
      ],
      "stateMutability": "view",
      "type": "function"
    },
    {
      "inputs": [
        {
          "internalType": "address",
          "name": "operator",
          "type": "address"
        },
        {
          "internalType": "address",
          "name": "from",
          "type": "address"
        },
        {
          "internalType": "uint256",
          "name": "tokenId",
          "type": "uint256"
        },
        {
          "internalType": "bytes",
          "name": "data",
          "type": "bytes"
        }
      ],
      "name": "onERC721Received",
      "outputs": [
        {
          "internalType": "bytes4",
          "name": "",
          "type": "bytes4"
        }
      ],
      "stateMutability": "nonpayable",
      "type": "function"
    },
    {
      "inputs": [],
      "name": "owner",
      "outputs": [
        {
          "internalType": "address",
          "name": "",
          "type": "address"
        }
      ],
      "stateMutability": "view",
      "type": "function"
    },
    {
      "inputs": [],
      "name": "renounceOwnership",
      "outputs": [],
      "stateMutability": "nonpayable",
      "type": "function"
    },
    {
      "inputs": [
        {
          "internalType": "address",
          "name": "newOwner",
          "type": "address"
        }
      ],
      "name": "transferOwnership",
      "outputs": [],
      "stateMutability": "nonpayable",
      "type": "function"
    },
    {
      "inputs": [
        {
          "internalType": "address",
          "name": "contractAddress",
          "type": "address"
        },
        {
          "internalType": "uint256",
          "name": "tokenId",
          "type": "uint256"
        }
      ],
      "name": "updateerc721Contract",
      "outputs": [],
      "stateMutability": "nonpayable",
      "type": "function"
    },
    {
      "stateMutability": "payable",
      "type": "receive"
    }
  ],
  "bytecode": "0x60806040523480156200001157600080fd5b506040516200210a3803806200210a8339818101604052810190620000379190620001f4565b80600073ffffffffffffffffffffffffffffffffffffffff168173ffffffffffffffffffffffffffffffffffffffff1603620000ad5760006040517f1e4fbdf7000000000000000000000000000000000000000000000000000000008152600401620000a4919062000237565b60405180910390fd5b620000be81620000c660201b60201c565b505062000254565b60008060009054906101000a900473ffffffffffffffffffffffffffffffffffffffff169050816000806101000a81548173ffffffffffffffffffffffffffffffffffffffff021916908373ffffffffffffffffffffffffffffffffffffffff1602179055508173ffffffffffffffffffffffffffffffffffffffff168173ffffffffffffffffffffffffffffffffffffffff167f8be0079c531659141344cd1fd0a4f28419497f9722a3daafe3b4186f6b6457e060405160405180910390a35050565b600080fd5b600073ffffffffffffffffffffffffffffffffffffffff82169050919050565b6000620001bc826200018f565b9050919050565b620001ce81620001af565b8114620001da57600080fd5b50565b600081519050620001ee81620001c3565b92915050565b6000602082840312156200020d576200020c6200018a565b5b60006200021d84828501620001dd565b91505092915050565b6200023181620001af565b82525050565b60006020820190506200024e600083018462000226565b92915050565b611ea680620002646000396000f3fe6080604052600436106100c65760003560e01c80638da5cb5b1161007f578063d170c52e11610059578063d170c52e146102d8578063dd81b82a14610315578063f2fde38b14610352578063f4be559b1461037b57610102565b80638da5cb5b14610259578063b69ef8a814610284578063c04ad73d146102af57610102565b8063150b7a021461013957806333c73598146101765780634c03e0c1146101b3578063715018a6146101f05780637250b73e1461020757806376eb37301461023057610102565b36610102577fcf34ef537ac33ee1ac626ca1587a0a7e8e51561e5514f8cb36afa1c5102b3bab6040516100f8906113d1565b60405180910390a1005b7fcf34ef537ac33ee1ac626ca1587a0a7e8e51561e5514f8cb36afa1c5102b3bab60405161012f9061143d565b60405180910390a1005b34801561014557600080fd5b50610160600480360381019061015b919061156a565b6103b8565b60405161016d919061162d565b60405180910390f35b34801561018257600080fd5b5061019d60048036038101906101989190611789565b6103e5565b6040516101aa9190611864565b60405180910390f35b3480156101bf57600080fd5b506101da60048036038101906101d59190611886565b610526565b6040516101e791906118ce565b60405180910390f35b3480156101fc57600080fd5b506102056105d4565b005b34801561021357600080fd5b5061022e600480360381019061022991906118e9565b6105e8565b005b34801561023c57600080fd5b50610257600480360381019061025291906118e9565b61091d565b005b34801561026557600080fd5b5061026e610d18565b60405161027b9190611938565b60405180910390f35b34801561029057600080fd5b50610299610d41565b6040516102a69190611962565b60405180910390f35b3480156102bb57600080fd5b506102d660048036038101906102d19190611886565b610d49565b005b3480156102e457600080fd5b506102ff60048036038101906102fa9190611886565b610e8a565b60405161030c91906118ce565b60405180910390f35b34801561032157600080fd5b5061033c60048036038101906103379190611789565b610f38565b6040516103499190611864565b60405180910390f35b34801561035e57600080fd5b5061037960048036038101906103749190611886565b611079565b005b34801561038757600080fd5b506103a2600480360381019061039d9190611886565b6110ff565b6040516103af9190611a3b565b60405180910390f35b60006040518060600160405280602f8152602001611e42602f913980519060200120905095945050505050565b60607fcf34ef537ac33ee1ac626ca1587a0a7e8e51561e5514f8cb36afa1c5102b3bab60405161041490611aa9565b60405180910390a1600061042784610526565b90508061046b57836040517fae384e230000000000000000000000000000000000000000000000000000000081526004016104629190611938565b60405180910390fd5b6000808573ffffffffffffffffffffffffffffffffffffffff16856040516104939190611b05565b6000604051808303816000865af19150503d80600081146104d0576040519150601f19603f3d011682016040523d82523d6000602084013e6104d5565b606091505b50915091508161051a576040517f08c379a000000000000000000000000000000000000000000000000000000000815260040161051190611b68565b60405180910390fd5b80935050505092915050565b6000806000905060005b6001805490508110156105ca576001818154811061055157610550611b88565b5b9060005260206000200160009054906101000a900473ffffffffffffffffffffffffffffffffffffffff1673ffffffffffffffffffffffffffffffffffffffff168473ffffffffffffffffffffffffffffffffffffffff16036105b757600191506105ca565b80806105c290611be6565b915050610530565b5080915050919050565b6105dc611196565b6105e6600061121d565b565b7fcf34ef537ac33ee1ac626ca1587a0a7e8e51561e5514f8cb36afa1c5102b3bab60405161061590611c7a565b60405180910390a1600073ffffffffffffffffffffffffffffffffffffffff168273ffffffffffffffffffffffffffffffffffffffff160361068c576040517f08c379a000000000000000000000000000000000000000000000000000000000815260040161068390611ce6565b60405180910390fd5b6000600360008473ffffffffffffffffffffffffffffffffffffffff1673ffffffffffffffffffffffffffffffffffffffff16815260200190815260200160002080548060200260200160405190810160405280929190818152602001828054801561071757602002820191906000526020600020905b815481526020019060010190808311610703575b50505050509050600081510361082c576002839080600181540180825580915050600190039060005260206000200160009091909190916101000a81548173ffffffffffffffffffffffffffffffffffffffff021916908373ffffffffffffffffffffffffffffffffffffffff160217905550600360008473ffffffffffffffffffffffffffffffffffffffff1673ffffffffffffffffffffffffffffffffffffffff1681526020019081526020016000208290806001815401808255809150506001900390600052602060002001600090919091909150557f89c66952b48f3e96bf1d8ba1b63189520fd988a6979b8b740bd5c5d8dc53e2058360405161081f9190611938565b60405180910390a1610918565b6000805b82518110156108725782818151811061084c5761084b611b88565b5b6020026020010151840361085f57600191505b808061086a90611be6565b915050610830565b508061091657600360008573ffffffffffffffffffffffffffffffffffffffff1673ffffffffffffffffffffffffffffffffffffffff1681526020019081526020016000208390806001815401808255809150506001900390600052602060002001600090919091909150557f89c66952b48f3e96bf1d8ba1b63189520fd988a6979b8b740bd5c5d8dc53e2058460405161090d9190611938565b60405180910390a15b505b505050565b7fcf34ef537ac33ee1ac626ca1587a0a7e8e51561e5514f8cb36afa1c5102b3bab60405161094a90611d52565b60405180910390a1600073ffffffffffffffffffffffffffffffffffffffff168273ffffffffffffffffffffffffffffffffffffffff16036109c1576040517f08c379a00000000000000000000000000000000000000000000000000000000081526004016109b890611ce6565b60405180910390fd5b6000600360008473ffffffffffffffffffffffffffffffffffffffff1673ffffffffffffffffffffffffffffffffffffffff168152602001908152602001600020805480602002602001604051908101604052809291908181526020018280548015610a4c57602002820191906000526020600020905b815481526020019060010190808311610a38575b505050505090506001815103610bd057600360008473ffffffffffffffffffffffffffffffffffffffff1673ffffffffffffffffffffffffffffffffffffffff1681526020019081526020016000206000610aa791906112e9565b60005b600280549050811015610b835760028181548110610acb57610aca611b88565b5b9060005260206000200160009054906101000a900473ffffffffffffffffffffffffffffffffffffffff1673ffffffffffffffffffffffffffffffffffffffff168473ffffffffffffffffffffffffffffffffffffffff1614610b70578160018351610b379190611d72565b81518110610b4857610b47611b88565b5b6020026020010151828281518110610b6357610b62611b88565b5b6020026020010181815250505b8080610b7b90611be6565b915050610aaa565b506002805480610b9657610b95611da6565b5b6001900381819060005260206000200160006101000a81549073ffffffffffffffffffffffffffffffffffffffff02191690559055610d13565b60005b8151811015610c5857818181518110610bef57610bee611b88565b5b60200260200101518314610c45578160018351610c0c9190611d72565b81518110610c1d57610c1c611b88565b5b6020026020010151828281518110610c3857610c37611b88565b5b6020026020010181815250505b8080610c5090611be6565b915050610bd3565b5080600360008573ffffffffffffffffffffffffffffffffffffffff1673ffffffffffffffffffffffffffffffffffffffff1681526020019081526020016000209080519060200190610cac92919061130a565b50600360008473ffffffffffffffffffffffffffffffffffffffff1673ffffffffffffffffffffffffffffffffffffffff168152602001908152602001600020805480610cfc57610cfb611da6565b5b600190038181906000526020600020016000905590555b505050565b60008060009054906101000a900473ffffffffffffffffffffffffffffffffffffffff16905090565b600047905090565b7fcf34ef537ac33ee1ac626ca1587a0a7e8e51561e5514f8cb36afa1c5102b3bab604051610d7690611e21565b60405180910390a1600073ffffffffffffffffffffffffffffffffffffffff168173ffffffffffffffffffffffffffffffffffffffff1603610ded576040517f08c379a0000000000000000000000000000000000000000000000000000000008152600401610de490611ce6565b60405180910390fd5b6001819080600181540180825580915050600190039060005260206000200160009091909190916101000a81548173ffffffffffffffffffffffffffffffffffffffff021916908373ffffffffffffffffffffffffffffffffffffffff1602179055507f89c66952b48f3e96bf1d8ba1b63189520fd988a6979b8b740bd5c5d8dc53e20581604051610e7f9190611938565b60405180910390a150565b6000806000905060005b600280549050811015610f2e5760028181548110610eb557610eb4611b88565b5b9060005260206000200160009054906101000a900473ffffffffffffffffffffffffffffffffffffffff1673ffffffffffffffffffffffffffffffffffffffff168473ffffffffffffffffffffffffffffffffffffffff1603610f1b5760019150610f2e565b8080610f2690611be6565b915050610e94565b5080915050919050565b60607fcf34ef537ac33ee1ac626ca1587a0a7e8e51561e5514f8cb36afa1c5102b3bab604051610f6790611aa9565b60405180910390a16000610f7a84610e8a565b905080610fbe57836040517fae384e23000000000000000000000000000000000000000000000000000000008152600401610fb59190611938565b60405180910390fd5b6000808573ffffffffffffffffffffffffffffffffffffffff1685604051610fe69190611b05565b6000604051808303816000865af19150503d8060008114611023576040519150601f19603f3d011682016040523d82523d6000602084013e611028565b606091505b50915091508161106d576040517f08c379a000000000000000000000000000000000000000000000000000000000815260040161106490611b68565b60405180910390fd5b80935050505092915050565b611081611196565b600073ffffffffffffffffffffffffffffffffffffffff168173ffffffffffffffffffffffffffffffffffffffff16036110f35760006040517f1e4fbdf70000000000000000000000000000000000000000000000000000000081526004016110ea9190611938565b60405180910390fd5b6110fc8161121d565b50565b6060600360008373ffffffffffffffffffffffffffffffffffffffff1673ffffffffffffffffffffffffffffffffffffffff16815260200190815260200160002080548060200260200160405190810160405280929190818152602001828054801561118a57602002820191906000526020600020905b815481526020019060010190808311611176575b50505050509050919050565b61119e6112e1565b73ffffffffffffffffffffffffffffffffffffffff166111bc610d18565b73ffffffffffffffffffffffffffffffffffffffff161461121b576111df6112e1565b6040517f118cdaa70000000000000000000000000000000000000000000000000000000081526004016112129190611938565b60405180910390fd5b565b60008060009054906101000a900473ffffffffffffffffffffffffffffffffffffffff169050816000806101000a81548173ffffffffffffffffffffffffffffffffffffffff021916908373ffffffffffffffffffffffffffffffffffffffff1602179055508173ffffffffffffffffffffffffffffffffffffffff168173ffffffffffffffffffffffffffffffffffffffff167f8be0079c531659141344cd1fd0a4f28419497f9722a3daafe3b4186f6b6457e060405160405180910390a35050565b600033905090565b50805460008255906000526020600020908101906113079190611357565b50565b828054828255906000526020600020908101928215611346579160200282015b8281111561134557825182559160200191906001019061132a565b5b5090506113539190611357565b5090565b5b80821115611370576000816000905550600101611358565b5090565b600082825260208201905092915050565b7f7265636569766500000000000000000000000000000000000000000000000000600082015250565b60006113bb600783611374565b91506113c682611385565b602082019050919050565b600060208201905081810360008301526113ea816113ae565b9050919050565b7f66616c6c6261636b000000000000000000000000000000000000000000000000600082015250565b6000611427600883611374565b9150611432826113f1565b602082019050919050565b600060208201905081810360008301526114568161141a565b9050919050565b6000604051905090565b600080fd5b600080fd5b600073ffffffffffffffffffffffffffffffffffffffff82169050919050565b600061149c82611471565b9050919050565b6114ac81611491565b81146114b757600080fd5b50565b6000813590506114c9816114a3565b92915050565b6000819050919050565b6114e2816114cf565b81146114ed57600080fd5b50565b6000813590506114ff816114d9565b92915050565b600080fd5b600080fd5b600080fd5b60008083601f84011261152a57611529611505565b5b8235905067ffffffffffffffff8111156115475761154661150a565b5b6020830191508360018202830111156115635761156261150f565b5b9250929050565b60008060008060006080868803121561158657611585611467565b5b6000611594888289016114ba565b95505060206115a5888289016114ba565b94505060406115b6888289016114f0565b935050606086013567ffffffffffffffff8111156115d7576115d661146c565b5b6115e388828901611514565b92509250509295509295909350565b60007fffffffff0000000000000000000000000000000000000000000000000000000082169050919050565b611627816115f2565b82525050565b6000602082019050611642600083018461161e565b92915050565b600080fd5b6000601f19601f8301169050919050565b7f4e487b7100000000000000000000000000000000000000000000000000000000600052604160045260246000fd5b6116968261164d565b810181811067ffffffffffffffff821117156116b5576116b461165e565b5b80604052505050565b60006116c861145d565b90506116d4828261168d565b919050565b600067ffffffffffffffff8211156116f4576116f361165e565b5b6116fd8261164d565b9050602081019050919050565b82818337600083830152505050565b600061172c611727846116d9565b6116be565b90508281526020810184848401111561174857611747611648565b5b61175384828561170a565b509392505050565b600082601f8301126117705761176f611505565b5b8135611780848260208601611719565b91505092915050565b600080604083850312156117a05761179f611467565b5b60006117ae858286016114ba565b925050602083013567ffffffffffffffff8111156117cf576117ce61146c565b5b6117db8582860161175b565b9150509250929050565b600081519050919050565b600082825260208201905092915050565b60005b8381101561181f578082015181840152602081019050611804565b60008484015250505050565b6000611836826117e5565b61184081856117f0565b9350611850818560208601611801565b6118598161164d565b840191505092915050565b6000602082019050818103600083015261187e818461182b565b905092915050565b60006020828403121561189c5761189b611467565b5b60006118aa848285016114ba565b91505092915050565b60008115159050919050565b6118c8816118b3565b82525050565b60006020820190506118e360008301846118bf565b92915050565b60008060408385031215611900576118ff611467565b5b600061190e858286016114ba565b925050602061191f858286016114f0565b9150509250929050565b61193281611491565b82525050565b600060208201905061194d6000830184611929565b92915050565b61195c816114cf565b82525050565b60006020820190506119776000830184611953565b92915050565b600081519050919050565b600082825260208201905092915050565b6000819050602082019050919050565b6119b2816114cf565b82525050565b60006119c483836119a9565b60208301905092915050565b6000602082019050919050565b60006119e88261197d565b6119f28185611988565b93506119fd83611999565b8060005b83811015611a2e578151611a1588826119b8565b9750611a20836119d0565b925050600181019050611a01565b5085935050505092915050565b60006020820190508181036000830152611a5581846119dd565b905092915050565b7f657263323043616c6c6572000000000000000000000000000000000000000000600082015250565b6000611a93600b83611374565b9150611a9e82611a5d565b602082019050919050565b60006020820190508181036000830152611ac281611a86565b9050919050565b600081905092915050565b6000611adf826117e5565b611ae98185611ac9565b9350611af9818560208601611801565b80840191505092915050565b6000611b118284611ad4565b915081905092915050565b7f66756e6374696f6e2063616c6c206661696c6564000000000000000000000000600082015250565b6000611b52601483611374565b9150611b5d82611b1c565b602082019050919050565b60006020820190508181036000830152611b8181611b45565b9050919050565b7f4e487b7100000000000000000000000000000000000000000000000000000000600052603260045260246000fd5b7f4e487b7100000000000000000000000000000000000000000000000000000000600052601160045260246000fd5b6000611bf1826114cf565b91507fffffffffffffffffffffffffffffffffffffffffffffffffffffffffffffffff8203611c2357611c22611bb7565b5b600182019050919050565b7f616464657263373231436f6e7472616374000000000000000000000000000000600082015250565b6000611c64601183611374565b9150611c6f82611c2e565b602082019050919050565b60006020820190508181036000830152611c9381611c57565b9050919050565b7f7a65726f20616464726573730000000000000000000000000000000000000000600082015250565b6000611cd0600c83611374565b9150611cdb82611c9a565b602082019050919050565b60006020820190508181036000830152611cff81611cc3565b9050919050565b7f757064617465657263373231436f6e7472616374000000000000000000000000600082015250565b6000611d3c601483611374565b9150611d4782611d06565b602082019050919050565b60006020820190508181036000830152611d6b81611d2f565b9050919050565b6000611d7d826114cf565b9150611d88836114cf565b9250828203905081811115611da057611d9f611bb7565b5b92915050565b7f4e487b7100000000000000000000000000000000000000000000000000000000600052603160045260246000fd5b7f6164646572633230436f6e747261637400000000000000000000000000000000600082015250565b6000611e0b601083611374565b9150611e1682611dd5565b602082019050919050565b60006020820190508181036000830152611e3a81611dfe565b905091905056fe6f6e455243373231526563656976656428616464726573732c616464726573732c75696e743235362c627974657329a264697066735822122046229514c1b4670444f7b69445a8c2e7937f6398a8ecfa5131405afde30a70fb64736f6c63430008140033",
  "linkReferences": {},
  "deployedLinkReferences": {}
}