{
  "_format": "hh-sol-artifact-1",
  "contractName": "SmartWallet",
  "sourceName": "contracts/SmartWallet.sol",
  "abi": [
    {
      "inputs": [
        {
          "internalType": "address",
          "name": "owner",
          "type": "address"
        }
      ],
      "stateMutability": "nonpayable",
      "type": "constructor"
    },
    {
      "inputs": [
        {
          "internalType": "address",
          "name": "owner",
          "type": "address"
        }
      ],
      "name": "OwnableInvalidOwner",
      "type": "error"
    },
    {
      "inputs": [
        {
          "internalType": "address",
          "name": "account",
          "type": "address"
        }
      ],
      "name": "OwnableUnauthorizedAccount",
      "type": "error"
    },
    {
      "inputs": [
        {
          "internalType": "address",
          "name": "",
          "type": "address"
        }
      ],
      "name": "notAnOWner",
      "type": "error"
    },
    {
      "anonymous": false,
      "inputs": [
        {
          "indexed": false,
          "internalType": "address",
          "name": "_contract",
          "type": "address"
        }
      ],
      "name": "ContractAdded",
      "type": "event"
    },
    {
      "anonymous": false,
      "inputs": [
        {
          "indexed": false,
          "internalType": "string",
          "name": "func",
          "type": "string"
        }
      ],
      "name": "Log",
      "type": "event"
    },
    {
      "anonymous": false,
      "inputs": [
        {
          "indexed": true,
          "internalType": "address",
          "name": "previousOwner",
          "type": "address"
        },
        {
          "indexed": true,
          "internalType": "address",
          "name": "newOwner",
          "type": "address"
        }
      ],
      "name": "OwnershipTransferred",
      "type": "event"
    },
    {
      "stateMutability": "payable",
      "type": "fallback"
    },
    {
      "inputs": [
        {
          "internalType": "address",
          "name": "contractAddress",
          "type": "address"
        }
      ],
      "name": "adderc20Contract",
      "outputs": [],
      "stateMutability": "nonpayable",
      "type": "function"
    },
    {
      "inputs": [
        {
          "internalType": "address",
          "name": "contractAddress",
          "type": "address"
        },
        {
          "internalType": "uint256",
          "name": "tokenId",
          "type": "uint256"
        }
      ],
      "name": "adderc721Contract",
      "outputs": [],
      "stateMutability": "nonpayable",
      "type": "function"
    },
    {
      "inputs": [],
      "name": "balance",
      "outputs": [
        {
          "internalType": "uint256",
          "name": "",
          "type": "uint256"
        }
      ],
      "stateMutability": "view",
      "type": "function"
    },
    {
      "inputs": [
        {
          "internalType": "address",
          "name": "contAddress",
          "type": "address"
        },
        {
          "internalType": "bytes",
          "name": "funcNameWithARguments",
          "type": "bytes"
        }
      ],
      "name": "erc20Caller",
      "outputs": [
        {
          "internalType": "bytes",
          "name": "",
          "type": "bytes"
        }
      ],
      "stateMutability": "nonpayable",
      "type": "function"
    },
    {
      "inputs": [
        {
          "internalType": "address",
          "name": "contAddress",
          "type": "address"
        },
        {
          "internalType": "bytes",
          "name": "funcNameWithARguments",
          "type": "bytes"
        }
      ],
      "name": "erc721Caller",
      "outputs": [
        {
          "internalType": "bytes",
          "name": "",
          "type": "bytes"
        }
      ],
      "stateMutability": "nonpayable",
      "type": "function"
    },
    {
      "inputs": [
        {
          "internalType": "address",
          "name": "contAddress",
          "type": "address"
        }
      ],
      "name": "iserc20TokenOwner",
      "outputs": [
        {
          "internalType": "bool",
          "name": "",
          "type": "bool"
        }
      ],
      "stateMutability": "view",
      "type": "function"
    },
    {
      "inputs": [
        {
          "internalType": "address",
          "name": "contAddress",
          "type": "address"
        }
      ],
      "name": "iserc721TokenOwner",
      "outputs": [
        {
          "internalType": "bool",
          "name": "",
          "type": "bool"
        }
      ],
      "stateMutability": "view",
      "type": "function"
    },
    {
      "inputs": [
        {
          "internalType": "address",
          "name": "operator",
          "type": "address"
        },
        {
          "internalType": "address",
          "name": "from",
          "type": "address"
        },
        {
          "internalType": "uint256",
          "name": "tokenId",
          "type": "uint256"
        },
        {
          "internalType": "bytes",
          "name": "data",
          "type": "bytes"
        }
      ],
      "name": "onERC721Received",
      "outputs": [
        {
          "internalType": "bytes4",
          "name": "",
          "type": "bytes4"
        }
      ],
      "stateMutability": "nonpayable",
      "type": "function"
    },
    {
      "inputs": [],
      "name": "owner",
      "outputs": [
        {
          "internalType": "address",
          "name": "",
          "type": "address"
        }
      ],
      "stateMutability": "view",
      "type": "function"
    },
    {
      "inputs": [],
      "name": "renounceOwnership",
      "outputs": [],
      "stateMutability": "nonpayable",
      "type": "function"
    },
    {
      "inputs": [
        {
          "internalType": "address",
          "name": "newOwner",
          "type": "address"
        }
      ],
      "name": "transferOwnership",
      "outputs": [],
      "stateMutability": "nonpayable",
      "type": "function"
    },
    {
      "stateMutability": "payable",
      "type": "receive"
    }
  ],
  "bytecode": "0x60806040523480156200001157600080fd5b50604051620019b2380380620019b28339818101604052810190620000379190620001f4565b80600073ffffffffffffffffffffffffffffffffffffffff168173ffffffffffffffffffffffffffffffffffffffff1603620000ad5760006040517f1e4fbdf7000000000000000000000000000000000000000000000000000000008152600401620000a4919062000237565b60405180910390fd5b620000be81620000c660201b60201c565b505062000254565b60008060009054906101000a900473ffffffffffffffffffffffffffffffffffffffff169050816000806101000a81548173ffffffffffffffffffffffffffffffffffffffff021916908373ffffffffffffffffffffffffffffffffffffffff1602179055508173ffffffffffffffffffffffffffffffffffffffff168173ffffffffffffffffffffffffffffffffffffffff167f8be0079c531659141344cd1fd0a4f28419497f9722a3daafe3b4186f6b6457e060405160405180910390a35050565b600080fd5b600073ffffffffffffffffffffffffffffffffffffffff82169050919050565b6000620001bc826200018f565b9050919050565b620001ce81620001af565b8114620001da57600080fd5b50565b600081519050620001ee81620001c3565b92915050565b6000602082840312156200020d576200020c6200018a565b5b60006200021d84828501620001dd565b91505092915050565b6200023181620001af565b82525050565b60006020820190506200024e600083018462000226565b92915050565b61174e80620002646000396000f3fe6080604052600436106100a05760003560e01c80638da5cb5b116100645780638da5cb5b1461020a578063b69ef8a814610235578063c04ad73d14610260578063d170c52e14610289578063dd81b82a146102c6578063f2fde38b14610303576100dc565b8063150b7a021461011357806333c73598146101505780634c03e0c11461018d578063715018a6146101ca5780637250b73e146101e1576100dc565b366100dc577fcf34ef537ac33ee1ac626ca1587a0a7e8e51561e5514f8cb36afa1c5102b3bab6040516100d290610e28565b60405180910390a1005b7fcf34ef537ac33ee1ac626ca1587a0a7e8e51561e5514f8cb36afa1c5102b3bab60405161010990610e94565b60405180910390a1005b34801561011f57600080fd5b5061013a60048036038101906101359190610fc1565b61032c565b6040516101479190611084565b60405180910390f35b34801561015c57600080fd5b50610177600480360381019061017291906111e0565b610359565b60405161018491906112bb565b60405180910390f35b34801561019957600080fd5b506101b460048036038101906101af91906112dd565b61049a565b6040516101c19190611325565b60405180910390f35b3480156101d657600080fd5b506101df610548565b005b3480156101ed57600080fd5b5061020860048036038101906102039190611340565b61055c565b005b34801561021657600080fd5b5061021f610891565b60405161022c919061138f565b60405180910390f35b34801561024157600080fd5b5061024a6108ba565b60405161025791906113b9565b60405180910390f35b34801561026c57600080fd5b50610287600480360381019061028291906112dd565b6108c2565b005b34801561029557600080fd5b506102b060048036038101906102ab91906112dd565b610a03565b6040516102bd9190611325565b60405180910390f35b3480156102d257600080fd5b506102ed60048036038101906102e891906111e0565b610ab1565b6040516102fa91906112bb565b60405180910390f35b34801561030f57600080fd5b5061032a600480360381019061032591906112dd565b610bf2565b005b60006040518060600160405280602f81526020016116ea602f913980519060200120905095945050505050565b60607fcf34ef537ac33ee1ac626ca1587a0a7e8e51561e5514f8cb36afa1c5102b3bab60405161038890611420565b60405180910390a1600061039b8461049a565b9050806103df57836040517fae384e230000000000000000000000000000000000000000000000000000000081526004016103d6919061138f565b60405180910390fd5b6000808573ffffffffffffffffffffffffffffffffffffffff1685604051610407919061147c565b6000604051808303816000865af19150503d8060008114610444576040519150601f19603f3d011682016040523d82523d6000602084013e610449565b606091505b50915091508161048e576040517f08c379a0000000000000000000000000000000000000000000000000000000008152600401610485906114df565b60405180910390fd5b80935050505092915050565b6000806000905060005b60018054905081101561053e57600181815481106104c5576104c46114ff565b5b9060005260206000200160009054906101000a900473ffffffffffffffffffffffffffffffffffffffff1673ffffffffffffffffffffffffffffffffffffffff168473ffffffffffffffffffffffffffffffffffffffff160361052b576001915061053e565b80806105369061155d565b9150506104a4565b5080915050919050565b610550610c78565b61055a6000610cff565b565b7fcf34ef537ac33ee1ac626ca1587a0a7e8e51561e5514f8cb36afa1c5102b3bab604051610589906115f1565b60405180910390a1600073ffffffffffffffffffffffffffffffffffffffff168273ffffffffffffffffffffffffffffffffffffffff1603610600576040517f08c379a00000000000000000000000000000000000000000000000000000000081526004016105f79061165d565b60405180910390fd5b6000600360008473ffffffffffffffffffffffffffffffffffffffff1673ffffffffffffffffffffffffffffffffffffffff16815260200190815260200160002080548060200260200160405190810160405280929190818152602001828054801561068b57602002820191906000526020600020905b815481526020019060010190808311610677575b5050505050905060008151036107a0576002839080600181540180825580915050600190039060005260206000200160009091909190916101000a81548173ffffffffffffffffffffffffffffffffffffffff021916908373ffffffffffffffffffffffffffffffffffffffff160217905550600360008473ffffffffffffffffffffffffffffffffffffffff1673ffffffffffffffffffffffffffffffffffffffff1681526020019081526020016000208290806001815401808255809150506001900390600052602060002001600090919091909150557f89c66952b48f3e96bf1d8ba1b63189520fd988a6979b8b740bd5c5d8dc53e20583604051610793919061138f565b60405180910390a161088c565b6000805b82518110156107e6578281815181106107c0576107bf6114ff565b5b602002602001015184036107d357600191505b80806107de9061155d565b9150506107a4565b508061088a57600360008573ffffffffffffffffffffffffffffffffffffffff1673ffffffffffffffffffffffffffffffffffffffff1681526020019081526020016000208390806001815401808255809150506001900390600052602060002001600090919091909150557f89c66952b48f3e96bf1d8ba1b63189520fd988a6979b8b740bd5c5d8dc53e20584604051610881919061138f565b60405180910390a15b505b505050565b60008060009054906101000a900473ffffffffffffffffffffffffffffffffffffffff16905090565b600047905090565b7fcf34ef537ac33ee1ac626ca1587a0a7e8e51561e5514f8cb36afa1c5102b3bab6040516108ef906116c9565b60405180910390a1600073ffffffffffffffffffffffffffffffffffffffff168173ffffffffffffffffffffffffffffffffffffffff1603610966576040517f08c379a000000000000000000000000000000000000000000000000000000000815260040161095d9061165d565b60405180910390fd5b6001819080600181540180825580915050600190039060005260206000200160009091909190916101000a81548173ffffffffffffffffffffffffffffffffffffffff021916908373ffffffffffffffffffffffffffffffffffffffff1602179055507f89c66952b48f3e96bf1d8ba1b63189520fd988a6979b8b740bd5c5d8dc53e205816040516109f8919061138f565b60405180910390a150565b6000806000905060005b600280549050811015610aa75760028181548110610a2e57610a2d6114ff565b5b9060005260206000200160009054906101000a900473ffffffffffffffffffffffffffffffffffffffff1673ffffffffffffffffffffffffffffffffffffffff168473ffffffffffffffffffffffffffffffffffffffff1603610a945760019150610aa7565b8080610a9f9061155d565b915050610a0d565b5080915050919050565b60607fcf34ef537ac33ee1ac626ca1587a0a7e8e51561e5514f8cb36afa1c5102b3bab604051610ae090611420565b60405180910390a16000610af384610a03565b905080610b3757836040517fae384e23000000000000000000000000000000000000000000000000000000008152600401610b2e919061138f565b60405180910390fd5b6000808573ffffffffffffffffffffffffffffffffffffffff1685604051610b5f919061147c565b6000604051808303816000865af19150503d8060008114610b9c576040519150601f19603f3d011682016040523d82523d6000602084013e610ba1565b606091505b509150915081610be6576040517f08c379a0000000000000000000000000000000000000000000000000000000008152600401610bdd906114df565b60405180910390fd5b80935050505092915050565b610bfa610c78565b600073ffffffffffffffffffffffffffffffffffffffff168173ffffffffffffffffffffffffffffffffffffffff1603610c6c5760006040517f1e4fbdf7000000000000000000000000000000000000000000000000000000008152600401610c63919061138f565b60405180910390fd5b610c7581610cff565b50565b610c80610dc3565b73ffffffffffffffffffffffffffffffffffffffff16610c9e610891565b73ffffffffffffffffffffffffffffffffffffffff1614610cfd57610cc1610dc3565b6040517f118cdaa7000000000000000000000000000000000000000000000000000000008152600401610cf4919061138f565b60405180910390fd5b565b60008060009054906101000a900473ffffffffffffffffffffffffffffffffffffffff169050816000806101000a81548173ffffffffffffffffffffffffffffffffffffffff021916908373ffffffffffffffffffffffffffffffffffffffff1602179055508173ffffffffffffffffffffffffffffffffffffffff168173ffffffffffffffffffffffffffffffffffffffff167f8be0079c531659141344cd1fd0a4f28419497f9722a3daafe3b4186f6b6457e060405160405180910390a35050565b600033905090565b600082825260208201905092915050565b7f7265636569766500000000000000000000000000000000000000000000000000600082015250565b6000610e12600783610dcb565b9150610e1d82610ddc565b602082019050919050565b60006020820190508181036000830152610e4181610e05565b9050919050565b7f66616c6c6261636b000000000000000000000000000000000000000000000000600082015250565b6000610e7e600883610dcb565b9150610e8982610e48565b602082019050919050565b60006020820190508181036000830152610ead81610e71565b9050919050565b6000604051905090565b600080fd5b600080fd5b600073ffffffffffffffffffffffffffffffffffffffff82169050919050565b6000610ef382610ec8565b9050919050565b610f0381610ee8565b8114610f0e57600080fd5b50565b600081359050610f2081610efa565b92915050565b6000819050919050565b610f3981610f26565b8114610f4457600080fd5b50565b600081359050610f5681610f30565b92915050565b600080fd5b600080fd5b600080fd5b60008083601f840112610f8157610f80610f5c565b5b8235905067ffffffffffffffff811115610f9e57610f9d610f61565b5b602083019150836001820283011115610fba57610fb9610f66565b5b9250929050565b600080600080600060808688031215610fdd57610fdc610ebe565b5b6000610feb88828901610f11565b9550506020610ffc88828901610f11565b945050604061100d88828901610f47565b935050606086013567ffffffffffffffff81111561102e5761102d610ec3565b5b61103a88828901610f6b565b92509250509295509295909350565b60007fffffffff0000000000000000000000000000000000000000000000000000000082169050919050565b61107e81611049565b82525050565b60006020820190506110996000830184611075565b92915050565b600080fd5b6000601f19601f8301169050919050565b7f4e487b7100000000000000000000000000000000000000000000000000000000600052604160045260246000fd5b6110ed826110a4565b810181811067ffffffffffffffff8211171561110c5761110b6110b5565b5b80604052505050565b600061111f610eb4565b905061112b82826110e4565b919050565b600067ffffffffffffffff82111561114b5761114a6110b5565b5b611154826110a4565b9050602081019050919050565b82818337600083830152505050565b600061118361117e84611130565b611115565b90508281526020810184848401111561119f5761119e61109f565b5b6111aa848285611161565b509392505050565b600082601f8301126111c7576111c6610f5c565b5b81356111d7848260208601611170565b91505092915050565b600080604083850312156111f7576111f6610ebe565b5b600061120585828601610f11565b925050602083013567ffffffffffffffff81111561122657611225610ec3565b5b611232858286016111b2565b9150509250929050565b600081519050919050565b600082825260208201905092915050565b60005b8381101561127657808201518184015260208101905061125b565b60008484015250505050565b600061128d8261123c565b6112978185611247565b93506112a7818560208601611258565b6112b0816110a4565b840191505092915050565b600060208201905081810360008301526112d58184611282565b905092915050565b6000602082840312156112f3576112f2610ebe565b5b600061130184828501610f11565b91505092915050565b60008115159050919050565b61131f8161130a565b82525050565b600060208201905061133a6000830184611316565b92915050565b6000806040838503121561135757611356610ebe565b5b600061136585828601610f11565b925050602061137685828601610f47565b9150509250929050565b61138981610ee8565b82525050565b60006020820190506113a46000830184611380565b92915050565b6113b381610f26565b82525050565b60006020820190506113ce60008301846113aa565b92915050565b7f657263323043616c6c6572000000000000000000000000000000000000000000600082015250565b600061140a600b83610dcb565b9150611415826113d4565b602082019050919050565b60006020820190508181036000830152611439816113fd565b9050919050565b600081905092915050565b60006114568261123c565b6114608185611440565b9350611470818560208601611258565b80840191505092915050565b6000611488828461144b565b915081905092915050565b7f66756e6374696f6e2063616c6c206661696c6564000000000000000000000000600082015250565b60006114c9601483610dcb565b91506114d482611493565b602082019050919050565b600060208201905081810360008301526114f8816114bc565b9050919050565b7f4e487b7100000000000000000000000000000000000000000000000000000000600052603260045260246000fd5b7f4e487b7100000000000000000000000000000000000000000000000000000000600052601160045260246000fd5b600061156882610f26565b91507fffffffffffffffffffffffffffffffffffffffffffffffffffffffffffffffff820361159a5761159961152e565b5b600182019050919050565b7f616464657263373231436f6e7472616374000000000000000000000000000000600082015250565b60006115db601183610dcb565b91506115e6826115a5565b602082019050919050565b6000602082019050818103600083015261160a816115ce565b9050919050565b7f7a65726f20616464726573730000000000000000000000000000000000000000600082015250565b6000611647600c83610dcb565b915061165282611611565b602082019050919050565b600060208201905081810360008301526116768161163a565b9050919050565b7f6164646572633230436f6e747261637400000000000000000000000000000000600082015250565b60006116b3601083610dcb565b91506116be8261167d565b602082019050919050565b600060208201905081810360008301526116e2816116a6565b905091905056fe6f6e455243373231526563656976656428616464726573732c616464726573732c75696e743235362c627974657329a264697066735822122042bc06ef6134fe4e6b627235f7a0298a99c8fb69186a9b8bdd662ae271a90c5764736f6c63430008140033",
  "linkReferences": {},
  "deployedLinkReferences": {}
}